:100000000C9461000C9473000C9473000C947300B6
:100010000C9473000C9473000C9473000C94730094
:100020000C9473000C9473000C9473000C94730084
:100030000C9473000C9473000C9473000C94730074
:100040000C94F0000C9473000C9473000C947300E7
:100050000C9473000C9473000C9473000C94730054
:100060000C9473000C94730000000000240027001F
:100070002A000000000023002600290000000000E4
:10008000250028002B0004040404040404040202D4
:100090000202020203030303030301020408102007
:1000A0004080010204081020010204081020000012
:1000B0000008000201000003040700000000000027
:1000C000000011241FBECFEFD8E0DEBFCDBF21E07E
:1000D000A0E0B1E001C01D92AF30B207E1F70E948D
:1000E0003A010C943B020C940000833081F028F418
:1000F000813099F08230A1F008958730A9F08830DE
:10010000B9F08430D1F4809180008F7D03C080915C
:1001100080008F7780938000089584B58F7702C028
:1001200084B58F7D84BD08958091B0008F7703C022
:100130008091B0008F7D8093B00008951F93CF937E
:10014000DF93ECEBF0E09491E8EAF0E0D491E4E99D
:10015000F0E0C491CC23D9F0182F992319F0892FFE
:100160000E947500EC2FF0E0EE0FFF1FE458FF4FE8
:10017000A591B4918FB7F894111105C09C91ED2F02
:10018000E095E92302C0EC91ED2BEC938FBFDF915A
:10019000CF911F9108953FB7F89480910B019091F2
:1001A0000C01A0910D01B0910E0126B5A89B05C0D0
:1001B0002F3F19F00196A11DB11D3FBFBA2FA92FE6
:1001C000982F8827820F911DA11DB11DBC01CD0163
:1001D00042E0660F771F881F991F4A95D1F708954F
:1001E0001F920F920FB60F9211242F933F938F936C
:1001F0009F93AF93BF938091070190910801A091C5
:100200000901B0910A013091060123E0230F2D3737
:1002100020F40196A11DB11D05C026E8230F02960A
:10022000A11DB11D20930601809307019093080141
:10023000A0930901B0930A0180910B0190910C01E8
:10024000A0910D01B0910E010196A11DB11D8093E9
:100250000B0190930C01A0930D01B0930E01BF917F
:10026000AF919F918F913F912F910F900FBE0F9063
:100270001F901895789484B5826084BD84B58160A0
:1002800084BD85B5826085BD85B5816085BD809161
:100290006E00816080936E001092810080918100D9
:1002A00082608093810080918100816080938100D1
:1002B000809180008160809380008091B100846093
:1002C0008093B1008091B00081608093B0008091F4
:1002D0007A00846080937A0080917A0082608093B3
:1002E0007A0080917A00816080937A0080917A0010
:1002F000806880937A001092C100E8EAF0E02491CF
:10030000E4E9F0E08491882399F090E0880F991F48
:10031000FC01E859FF4FA591B491FC01E458FF4F4F
:10032000859194918FB7F894EC91E22BEC938FBF69
:1003300007EA10E0F801249153E9E52E50E0F52E8C
:10034000F70184918823C1F090E0880F991FFC0188
:10035000E859FF4FA591B491FC01E458FF4FC591B6
:10036000D4919FB7F8943C91822F809583238C93EE
:100370008881282B28839FBF80E00E949E002BEB62
:10038000222E20E0322ECC24C394D12CF101849172
:10039000F801D491F701C491CC23A1F081110E94FE
:1003A0007500EC2FF0E0EE0FFF1FEE58FF4FA59108
:1003B000B4918C91D82391E080E009F490E0C92FAA
:1003C000D82F02C0C0E0D0E0D0930501C093040153
:1003D0002097B9F58091020190910301892B89F54D
:1003E00080910001909101019601281B390B3093F7
:1003F0000101209300010E94CB004B015C0184E1CC
:10040000482E512C612C712C0E94CB00DC01CB01B9
:1004100088199909AA09BB09883E9340A105B1052D
:1004200058F031E0431A51086108710888EE880ECF
:1004300083E0981EA11CB11C411451046104710495
:1004400019F7C6018C1B9D0B909303018093020149
:100450008091000190910101019711F481E001C0A8
:1004600080E00E949E0020E030E0232B09F48ECF34
:0A0470000E9400008BCFF894FFCF2C
:00000001FF
